{
  "_format": "hh-sol-artifact-1",
  "contractName": "GaslessNFTTipping",
  "sourceName": "contracts/GaslessNFTTipping.sol",
  "abi": [
    {
      "inputs": [],
      "stateMutability": "nonpayable",
      "type": "constructor"
    },
    {
      "inputs": [
        {
          "internalType": "address",
          "name": "sender",
          "type": "address"
        },
        {
          "internalType": "uint256",
          "name": "tokenId",
          "type": "uint256"
        },
        {
          "internalType": "address",
          "name": "owner",
          "type": "address"
        }
      ],
      "name": "ERC721IncorrectOwner",
      "type": "error"
    },
    {
      "inputs": [
        {
          "internalType": "address",
          "name": "operator",
          "type": "address"
        },
        {
          "internalType": "uint256",
          "name": "tokenId",
          "type": "uint256"
        }
      ],
      "name": "ERC721InsufficientApproval",
      "type": "error"
    },
    {
      "inputs": [
        {
          "internalType": "address",
          "name": "approver",
          "type": "address"
        }
      ],
      "name": "ERC721InvalidApprover",
      "type": "error"
    },
    {
      "inputs": [
        {
          "internalType": "address",
          "name": "operator",
          "type": "address"
        }
      ],
      "name": "ERC721InvalidOperator",
      "type": "error"
    },
    {
      "inputs": [
        {
          "internalType": "address",
          "name": "owner",
          "type": "address"
        }
      ],
      "name": "ERC721InvalidOwner",
      "type": "error"
    },
    {
      "inputs": [
        {
          "internalType": "address",
          "name": "receiver",
          "type": "address"
        }
      ],
      "name": "ERC721InvalidReceiver",
      "type": "error"
    },
    {
      "inputs": [
        {
          "internalType": "address",
          "name": "sender",
          "type": "address"
        }
      ],
      "name": "ERC721InvalidSender",
      "type": "error"
    },
    {
      "inputs": [
        {
          "internalType": "uint256",
          "name": "tokenId",
          "type": "uint256"
        }
      ],
      "name": "ERC721NonexistentToken",
      "type": "error"
    },
    {
      "inputs": [
        {
          "internalType": "address",
          "name": "owner",
          "type": "address"
        }
      ],
      "name": "OwnableInvalidOwner",
      "type": "error"
    },
    {
      "inputs": [
        {
          "internalType": "address",
          "name": "account",
          "type": "address"
        }
      ],
      "name": "OwnableUnauthorizedAccount",
      "type": "error"
    },
    {
      "anonymous": false,
      "inputs": [
        {
          "indexed": true,
          "internalType": "address",
          "name": "owner",
          "type": "address"
        },
        {
          "indexed": true,
          "internalType": "address",
          "name": "approved",
          "type": "address"
        },
        {
          "indexed": true,
          "internalType": "uint256",
          "name": "tokenId",
          "type": "uint256"
        }
      ],
      "name": "Approval",
      "type": "event"
    },
    {
      "anonymous": false,
      "inputs": [
        {
          "indexed": true,
          "internalType": "address",
          "name": "owner",
          "type": "address"
        },
        {
          "indexed": true,
          "internalType": "address",
          "name": "operator",
          "type": "address"
        },
        {
          "indexed": false,
          "internalType": "bool",
          "name": "approved",
          "type": "bool"
        }
      ],
      "name": "ApprovalForAll",
      "type": "event"
    },
    {
      "anonymous": false,
      "inputs": [
        {
          "indexed": true,
          "internalType": "address",
          "name": "creator",
          "type": "address"
        },
        {
          "indexed": false,
          "internalType": "string",
          "name": "name",
          "type": "string"
        },
        {
          "indexed": false,
          "internalType": "string",
          "name": "description",
          "type": "string"
        }
      ],
      "name": "CreatorRegistered",
      "type": "event"
    },
    {
      "anonymous": false,
      "inputs": [
        {
          "indexed": true,
          "internalType": "address",
          "name": "previousOwner",
          "type": "address"
        },
        {
          "indexed": true,
          "internalType": "address",
          "name": "newOwner",
          "type": "address"
        }
      ],
      "name": "OwnershipTransferred",
      "type": "event"
    },
    {
      "anonymous": false,
      "inputs": [
        {
          "indexed": true,
          "internalType": "address",
          "name": "tipper",
          "type": "address"
        },
        {
          "indexed": true,
          "internalType": "address",
          "name": "creator",
          "type": "address"
        },
        {
          "indexed": false,
          "internalType": "uint256",
          "name": "tokenId",
          "type": "uint256"
        },
        {
          "indexed": false,
          "internalType": "uint256",
          "name": "amount",
          "type": "uint256"
        },
        {
          "indexed": false,
          "internalType": "string",
          "name": "message",
          "type": "string"
        }
      ],
      "name": "TipSent",
      "type": "event"
    },
    {
      "anonymous": false,
      "inputs": [
        {
          "indexed": true,
          "internalType": "address",
          "name": "creator",
          "type": "address"
        },
        {
          "indexed": false,
          "internalType": "uint256",
          "name": "amount",
          "type": "uint256"
        }
      ],
      "name": "TipWithdrawn",
      "type": "event"
    },
    {
      "anonymous": false,
      "inputs": [
        {
          "indexed": true,
          "internalType": "address",
          "name": "from",
          "type": "address"
        },
        {
          "indexed": true,
          "internalType": "address",
          "name": "to",
          "type": "address"
        },
        {
          "indexed": true,
          "internalType": "uint256",
          "name": "tokenId",
          "type": "uint256"
        }
      ],
      "name": "Transfer",
      "type": "event"
    },
    {
      "inputs": [
        {
          "internalType": "address",
          "name": "to",
          "type": "address"
        },
        {
          "internalType": "uint256",
          "name": "tokenId",
          "type": "uint256"
        }
      ],
      "name": "approve",
      "outputs": [],
      "stateMutability": "nonpayable",
      "type": "function"
    },
    {
      "inputs": [
        {
          "internalType": "address",
          "name": "owner",
          "type": "address"
        }
      ],
      "name": "balanceOf",
      "outputs": [
        {
          "internalType": "uint256",
          "name": "",
          "type": "uint256"
        }
      ],
      "stateMutability": "view",
      "type": "function"
    },
    {
      "inputs": [
        {
          "internalType": "address",
          "name": "",
          "type": "address"
        },
        {
          "internalType": "uint256",
          "name": "",
          "type": "uint256"
        }
      ],
      "name": "creatorTips",
      "outputs": [
        {
          "internalType": "uint256",
          "name": "",
          "type": "uint256"
        }
      ],
      "stateMutability": "view",
      "type": "function"
    },
    {
      "inputs": [
        {
          "internalType": "address",
          "name": "",
          "type": "address"
        }
      ],
      "name": "creators",
      "outputs": [
        {
          "internalType": "string",
          "name": "name",
          "type": "string"
        },
        {
          "internalType": "string",
          "name": "description",
          "type": "string"
        },
        {
          "internalType": "string",
          "name": "avatar",
          "type": "string"
        },
        {
          "internalType": "bool",
          "name": "isRegistered",
          "type": "bool"
        },
        {
          "internalType": "uint256",
          "name": "totalTips",
          "type": "uint256"
        },
        {
          "internalType": "uint256",
          "name": "totalEarnings",
          "type": "uint256"
        }
      ],
      "stateMutability": "view",
      "type": "function"
    },
    {
      "inputs": [
        {
          "internalType": "uint256",
          "name": "tokenId",
          "type": "uint256"
        }
      ],
      "name": "getApproved",
      "outputs": [
        {
          "internalType": "address",
          "name": "",
          "type": "address"
        }
      ],
      "stateMutability": "view",
      "type": "function"
    },
    {
      "inputs": [
        {
          "internalType": "address",
          "name": "_creator",
          "type": "address"
        }
      ],
      "name": "getCreatorTips",
      "outputs": [
        {
          "internalType": "uint256[]",
          "name": "",
          "type": "uint256[]"
        }
      ],
      "stateMutability": "view",
      "type": "function"
    },
    {
      "inputs": [
        {
          "internalType": "uint256",
          "name": "_tokenId",
          "type": "uint256"
        }
      ],
      "name": "getTip",
      "outputs": [
        {
          "components": [
            {
              "internalType": "address",
              "name": "tipper",
              "type": "address"
            },
            {
              "internalType": "address",
              "name": "creator",
              "type": "address"
            },
            {
              "internalType": "uint256",
              "name": "amount",
              "type": "uint256"
            },
            {
              "internalType": "string",
              "name": "message",
              "type": "string"
            },
            {
              "internalType": "uint256",
              "name": "timestamp",
              "type": "uint256"
            },
            {
              "internalType": "bool",
              "name": "exists",
              "type": "bool"
            }
          ],
          "internalType": "struct GaslessNFTTipping.Tip",
          "name": "",
          "type": "tuple"
        }
      ],
      "stateMutability": "view",
      "type": "function"
    },
    {
      "inputs": [
        {
          "internalType": "address",
          "name": "_tipper",
          "type": "address"
        }
      ],
      "name": "getTipperTips",
      "outputs": [
        {
          "internalType": "uint256[]",
          "name": "",
          "type": "uint256[]"
        }
      ],
      "stateMutability": "view",
      "type": "function"
    },
    {
      "inputs": [
        {
          "internalType": "address",
          "name": "owner",
          "type": "address"
        },
        {
          "internalType": "address",
          "name": "operator",
          "type": "address"
        }
      ],
      "name": "isApprovedForAll",
      "outputs": [
        {
          "internalType": "bool",
          "name": "",
          "type": "bool"
        }
      ],
      "stateMutability": "view",
      "type": "function"
    },
    {
      "inputs": [],
      "name": "name",
      "outputs": [
        {
          "internalType": "string",
          "name": "",
          "type": "string"
        }
      ],
      "stateMutability": "view",
      "type": "function"
    },
    {
      "inputs": [],
      "name": "owner",
      "outputs": [
        {
          "internalType": "address",
          "name": "",
          "type": "address"
        }
      ],
      "stateMutability": "view",
      "type": "function"
    },
    {
      "inputs": [
        {
          "internalType": "uint256",
          "name": "tokenId",
          "type": "uint256"
        }
      ],
      "name": "ownerOf",
      "outputs": [
        {
          "internalType": "address",
          "name": "",
          "type": "address"
        }
      ],
      "stateMutability": "view",
      "type": "function"
    },
    {
      "inputs": [],
      "name": "platformEarnings",
      "outputs": [
        {
          "internalType": "uint256",
          "name": "",
          "type": "uint256"
        }
      ],
      "stateMutability": "view",
      "type": "function"
    },
    {
      "inputs": [],
      "name": "platformFee",
      "outputs": [
        {
          "internalType": "uint256",
          "name": "",
          "type": "uint256"
        }
      ],
      "stateMutability": "view",
      "type": "function"
    },
    {
      "inputs": [
        {
          "internalType": "string",
          "name": "_name",
          "type": "string"
        },
        {
          "internalType": "string",
          "name": "_description",
          "type": "string"
        },
        {
          "internalType": "string",
          "name": "_avatar",
          "type": "string"
        }
      ],
      "name": "registerCreator",
      "outputs": [],
      "stateMutability": "nonpayable",
      "type": "function"
    },
    {
      "inputs": [],
      "name": "renounceOwnership",
      "outputs": [],
      "stateMutability": "nonpayable",
      "type": "function"
    },
    {
      "inputs": [
        {
          "internalType": "address",
          "name": "from",
          "type": "address"
        },
        {
          "internalType": "address",
          "name": "to",
          "type": "address"
        },
        {
          "internalType": "uint256",
          "name": "tokenId",
          "type": "uint256"
        }
      ],
      "name": "safeTransferFrom",
      "outputs": [],
      "stateMutability": "nonpayable",
      "type": "function"
    },
    {
      "inputs": [
        {
          "internalType": "address",
          "name": "from",
          "type": "address"
        },
        {
          "internalType": "address",
          "name": "to",
          "type": "address"
        },
        {
          "internalType": "uint256",
          "name": "tokenId",
          "type": "uint256"
        },
        {
          "internalType": "bytes",
          "name": "data",
          "type": "bytes"
        }
      ],
      "name": "safeTransferFrom",
      "outputs": [],
      "stateMutability": "nonpayable",
      "type": "function"
    },
    {
      "inputs": [
        {
          "internalType": "address",
          "name": "_creator",
          "type": "address"
        },
        {
          "internalType": "string",
          "name": "_message",
          "type": "string"
        },
        {
          "internalType": "string",
          "name": "_tokenURI",
          "type": "string"
        }
      ],
      "name": "sendTip",
      "outputs": [],
      "stateMutability": "payable",
      "type": "function"
    },
    {
      "inputs": [
        {
          "internalType": "address",
          "name": "operator",
          "type": "address"
        },
        {
          "internalType": "bool",
          "name": "approved",
          "type": "bool"
        }
      ],
      "name": "setApprovalForAll",
      "outputs": [],
      "stateMutability": "nonpayable",
      "type": "function"
    },
    {
      "inputs": [
        {
          "internalType": "bytes4",
          "name": "interfaceId",
          "type": "bytes4"
        }
      ],
      "name": "supportsInterface",
      "outputs": [
        {
          "internalType": "bool",
          "name": "",
          "type": "bool"
        }
      ],
      "stateMutability": "view",
      "type": "function"
    },
    {
      "inputs": [],
      "name": "symbol",
      "outputs": [
        {
          "internalType": "string",
          "name": "",
          "type": "string"
        }
      ],
      "stateMutability": "view",
      "type": "function"
    },
    {
      "inputs": [
        {
          "internalType": "address",
          "name": "",
          "type": "address"
        },
        {
          "internalType": "uint256",
          "name": "",
          "type": "uint256"
        }
      ],
      "name": "tipperTips",
      "outputs": [
        {
          "internalType": "uint256",
          "name": "",
          "type": "uint256"
        }
      ],
      "stateMutability": "view",
      "type": "function"
    },
    {
      "inputs": [
        {
          "internalType": "uint256",
          "name": "",
          "type": "uint256"
        }
      ],
      "name": "tips",
      "outputs": [
        {
          "internalType": "address",
          "name": "tipper",
          "type": "address"
        },
        {
          "internalType": "address",
          "name": "creator",
          "type": "address"
        },
        {
          "internalType": "uint256",
          "name": "amount",
          "type": "uint256"
        },
        {
          "internalType": "string",
          "name": "message",
          "type": "string"
        },
        {
          "internalType": "uint256",
          "name": "timestamp",
          "type": "uint256"
        },
        {
          "internalType": "bool",
          "name": "exists",
          "type": "bool"
        }
      ],
      "stateMutability": "view",
      "type": "function"
    },
    {
      "inputs": [
        {
          "internalType": "uint256",
          "name": "tokenId",
          "type": "uint256"
        }
      ],
      "name": "tokenURI",
      "outputs": [
        {
          "internalType": "string",
          "name": "",
          "type": "string"
        }
      ],
      "stateMutability": "view",
      "type": "function"
    },
    {
      "inputs": [
        {
          "internalType": "address",
          "name": "from",
          "type": "address"
        },
        {
          "internalType": "address",
          "name": "to",
          "type": "address"
        },
        {
          "internalType": "uint256",
          "name": "tokenId",
          "type": "uint256"
        }
      ],
      "name": "transferFrom",
      "outputs": [],
      "stateMutability": "nonpayable",
      "type": "function"
    },
    {
      "inputs": [
        {
          "internalType": "address",
          "name": "newOwner",
          "type": "address"
        }
      ],
      "name": "transferOwnership",
      "outputs": [],
      "stateMutability": "nonpayable",
      "type": "function"
    },
    {
      "inputs": [
        {
          "internalType": "string",
          "name": "_name",
          "type": "string"
        },
        {
          "internalType": "string",
          "name": "_description",
          "type": "string"
        },
        {
          "internalType": "string",
          "name": "_avatar",
          "type": "string"
        }
      ],
      "name": "updateCreatorProfile",
      "outputs": [],
      "stateMutability": "nonpayable",
      "type": "function"
    },
    {
      "inputs": [],
      "name": "withdrawPlatformEarnings",
      "outputs": [],
      "stateMutability": "nonpayable",
      "type": "function"
    }
  ],
  "bytecode": "0x60806040526064600c556000600d553480156200001b57600080fd5b50336040518060400160405280601081526020017f4761736c657373204e46542054697073000000000000000000000000000000008152506040518060400160405280600381526020017f474e54000000000000000000000000000000000000000000000000000000000081525081600090816200009a91906200047c565b508060019081620000ac91906200047c565b505050600073ffffffffffffffffffffffffffffffffffffffff168173ffffffffffffffffffffffffffffffffffffffff1603620001245760006040517f1e4fbdf70000000000000000000000000000000000000000000000000000000081526004016200011b9190620005a8565b60405180910390fd5b62000135816200013c60201b60201c565b50620005c5565b6000600660009054906101000a900473ffffffffffffffffffffffffffffffffffffffff16905081600660006101000a81548173ffffffffffffffffffffffffffffffffffffffff021916908373ffffffffffffffffffffffffffffffffffffffff1602179055508173ffffffffffffffffffffffffffffffffffffffff168173ffffffffffffffffffffffffffffffffffffffff167f8be0079c531659141344cd1fd0a4f28419497f9722a3daafe3b4186f6b6457e060405160405180910390a35050565b600081519050919050565b7f4e487b7100000000000000000000000000000000000000000000000000000000600052604160045260246000fd5b7f4e487b7100000000000000000000000000000000000000000000000000000000600052602260045260246000fd5b600060028204905060018216806200028457607f821691505b6020821081036200029a57620002996200023c565b5b50919050565b60008190508160005260206000209050919050565b60006020601f8301049050919050565b600082821b905092915050565b600060088302620003047fffffffffffffffffffffffffffffffffffffffffffffffffffffffffffffffff82620002c5565b620003108683620002c5565b95508019841693508086168417925050509392505050565b6000819050919050565b6000819050919050565b60006200035d62000357620003518462000328565b62000332565b62000328565b9050919050565b6000819050919050565b62000379836200033c565b62000391620003888262000364565b848454620002d2565b825550505050565b600090565b620003a862000399565b620003b58184846200036e565b505050565b5b81811015620003dd57620003d16000826200039e565b600181019050620003bb565b5050565b601f8211156200042c57620003f681620002a0565b6200040184620002b5565b8101602085101562000411578190505b620004296200042085620002b5565b830182620003ba565b50505b505050565b600082821c905092915050565b6000620004516000198460080262000431565b1980831691505092915050565b60006200046c83836200043e565b9150826002028217905092915050565b620004878262000202565b67ffffffffffffffff811115620004a357620004a26200020d565b5b620004af82546200026b565b620004bc828285620003e1565b600060209050601f831160018114620004f45760008415620004df578287015190505b620004eb85826200045e565b8655506200055b565b601f1984166200050486620002a0565b60005b828110156200052e5784890151825560018201915060208501945060208101905062000507565b868310156200054e57848901516200054a601f8916826200043e565b8355505b6001600288020188555050505b505050505050565b600073ffffffffffffffffffffffffffffffffffffffff82169050919050565b6000620005908262000563565b9050919050565b620005a28162000583565b82525050565b6000602082019050620005bf600083018462000597565b92915050565b61401880620005d56000396000f3fe6080604052600436106101c25760003560e01c80638da5cb5b116100f7578063a22cb46511610095578063c87b56dd11610064578063c87b56dd14610687578063cce955d0146106c4578063e985e9c5146106ed578063f2fde38b1461072a576101c2565b8063a22cb465146105c8578063a5c68c59146105f1578063b88d4fde14610633578063be820aa21461065c576101c2565b806396a03cc5116100d157806396a03cc51461050e5780639d182f0b1461054b5780639d7e8f0214610562578063a1c864e91461059f576101c2565b80638da5cb5b14610476578063933166e1146104a157806395d89b41146104e3576101c2565b806326232a2e116101645780636352211e1161013e5780636352211e146103a857806370a08231146103e557806370bdfb0314610422578063715018a61461045f576101c2565b806326232a2e1461031757806342842e0e146103425780635b703f5c1461036b576101c2565b8063095ea7b3116101a0578063095ea7b31461026c57806314b892b3146102955780631e93f1f7146102b157806323b872dd146102ee576101c2565b806301ffc9a7146101c757806306fdde0314610204578063081812fc1461022f575b600080fd5b3480156101d357600080fd5b506101ee60048036038101906101e99190612ccb565b610753565b6040516101fb9190612d13565b60405180910390f35b34801561021057600080fd5b50610219610835565b6040516102269190612dbe565b60405180910390f35b34801561023b57600080fd5b5061025660048036038101906102519190612e16565b6108c7565b6040516102639190612e84565b60405180910390f35b34801561027857600080fd5b50610293600480360381019061028e9190612ecb565b6108e3565b005b6102af60048036038101906102aa9190613040565b6108f9565b005b3480156102bd57600080fd5b506102d860048036038101906102d39190612ecb565b610e2b565b6040516102e591906130da565b60405180910390f35b3480156102fa57600080fd5b50610315600480360381019061031091906130f5565b610e5c565b005b34801561032357600080fd5b5061032c610f5e565b60405161033991906130da565b60405180910390f35b34801561034e57600080fd5b50610369600480360381019061036491906130f5565b610f64565b005b34801561037757600080fd5b50610392600480360381019061038d9190612e16565b610f84565b60405161039f9190613248565b60405180910390f35b3480156103b457600080fd5b506103cf60048036038101906103ca9190612e16565b611181565b6040516103dc9190612e84565b60405180910390f35b3480156103f157600080fd5b5061040c6004803603810190610407919061326a565b611193565b60405161041991906130da565b60405180910390f35b34801561042e57600080fd5b506104496004803603810190610444919061326a565b61124d565b6040516104569190613346565b60405180910390f35b34801561046b57600080fd5b506104746112e4565b005b34801561048257600080fd5b5061048b6112f8565b6040516104989190612e84565b60405180910390f35b3480156104ad57600080fd5b506104c860048036038101906104c3919061326a565b611322565b6040516104da96959493929190613368565b60405180910390f35b3480156104ef57600080fd5b506104f8611503565b6040516105059190612dbe565b60405180910390f35b34801561051a57600080fd5b506105356004803603810190610530919061326a565b611595565b6040516105429190613346565b60405180910390f35b34801561055757600080fd5b5061056061162c565b005b34801561056e57600080fd5b5061058960048036038101906105849190612ecb565b611694565b60405161059691906130da565b60405180910390f35b3480156105ab57600080fd5b506105c660048036038101906105c191906133de565b6116c5565b005b3480156105d457600080fd5b506105ef60048036038101906105ea91906134b1565b6118d8565b005b3480156105fd57600080fd5b5061061860048036038101906106139190612e16565b6118ee565b60405161062a969594939291906134f1565b60405180910390f35b34801561063f57600080fd5b5061065a600480360381019061065591906135fa565b6119ff565b005b34801561066857600080fd5b50610671611a24565b60405161067e91906130da565b60405180910390f35b34801561069357600080fd5b506106ae60048036038101906106a99190612e16565b611a2a565b6040516106bb9190612dbe565b60405180910390f35b3480156106d057600080fd5b506106eb60048036038101906106e691906133de565b611a93565b005b3480156106f957600080fd5b50610714600480360381019061070f919061367d565b611c17565b6040516107219190612d13565b60405180910390f35b34801561073657600080fd5b50610751600480360381019061074c919061326a565b611cab565b005b60007f80ac58cd000000000000000000000000000000000000000000000000000000007bffffffffffffffffffffffffffffffffffffffffffffffffffffffff1916827bffffffffffffffffffffffffffffffffffffffffffffffffffffffff1916148061081e57507f5b5e139f000000000000000000000000000000000000000000000000000000007bffffffffffffffffffffffffffffffffffffffffffffffffffffffff1916827bffffffffffffffffffffffffffffffffffffffffffffffffffffffff1916145b8061082e575061082d82611d31565b5b9050919050565b606060008054610844906136ec565b80601f0160208091040260200160405190810160405280929190818152602001828054610870906136ec565b80156108bd5780601f10610892576101008083540402835291602001916108bd565b820191906000526020600020905b8154815290600101906020018083116108a057829003601f168201915b5050505050905090565b60006108d282611d9b565b506108dc82611e23565b9050919050565b6108f582826108f0611e60565b611e68565b5050565b600960008473ffffffffffffffffffffffffffffffffffffffff1673ffffffffffffffffffffffffffffffffffffffff16815260200190815260200160002060030160009054906101000a900460ff16610988576040517f08c379a000000000000000000000000000000000000000000000000000000000815260040161097f90613769565b60405180910390fd5b600034116109cb576040517f08c379a00000000000000000000000000000000000000000000000000000000081526004016109c2906137fb565b60405180910390fd5b8273ffffffffffffffffffffffffffffffffffffffff163373ffffffffffffffffffffffffffffffffffffffff1603610a39576040517f08c379a0000000000000000000000000000000000000000000000000000000008152600401610a3090613867565b60405180910390fd5b60076000815480929190610a4c906138b6565b9190505550600060075490506000612710600c5434610a6b91906138fe565b610a75919061396f565b905060008134610a8591906139a0565b905081600d6000828254610a9991906139d4565b925050819055506001600960008873ffffffffffffffffffffffffffffffffffffffff1673ffffffffffffffffffffffffffffffffffffffff1681526020019081526020016000206004016000828254610af391906139d4565b9250508190555080600960008873ffffffffffffffffffffffffffffffffffffffff1673ffffffffffffffffffffffffffffffffffffffff1681526020019081526020016000206005016000828254610b4c91906139d4565b925050819055506040518060c001604052803373ffffffffffffffffffffffffffffffffffffffff1681526020018773ffffffffffffffffffffffffffffffffffffffff168152602001348152602001868152602001428152602001600115158152506008600085815260200190815260200160002060008201518160000160006101000a81548173ffffffffffffffffffffffffffffffffffffffff021916908373ffffffffffffffffffffffffffffffffffffffff16021790555060208201518160010160006101000a81548173ffffffffffffffffffffffffffffffffffffffff021916908373ffffffffffffffffffffffffffffffffffffffff160217905550604082015181600201556060820151816003019081610c6f9190613bb4565b506080820151816004015560a08201518160050160006101000a81548160ff021916908315150217905550905050600a60008773ffffffffffffffffffffffffffffffffffffffff1673ffffffffffffffffffffffffffffffffffffffff168152602001908152602001600020839080600181540180825580915050600190039060005260206000200160009091909190915055600b60003373ffffffffffffffffffffffffffffffffffffffff1673ffffffffffffffffffffffffffffffffffffffff168152602001908152602001600020839080600181540180825580915050600190039060005260206000200160009091909190915055610d733384611e7a565b8573ffffffffffffffffffffffffffffffffffffffff166108fc829081150290604051600060405180830381858888f19350505050158015610db9573d6000803e3d6000fd5b508573ffffffffffffffffffffffffffffffffffffffff163373ffffffffffffffffffffffffffffffffffffffff167f6e33c23d08e9eacf5ff0ac2c4a326dbb6dc24dbacdd10be6676d3d9367d3f0ca853489604051610e1b93929190613c86565b60405180910390a3505050505050565b600a6020528160005260406000208181548110610e4757600080fd5b90600052602060002001600091509150505481565b600073ffffffffffffffffffffffffffffffffffffffff168273ffffffffffffffffffffffffffffffffffffffff1603610ece5760006040517f64a0ae92000000000000000000000000000000000000000000000000000000008152600401610ec59190612e84565b60405180910390fd5b6000610ee28383610edd611e60565b611e98565b90508373ffffffffffffffffffffffffffffffffffffffff168173ffffffffffffffffffffffffffffffffffffffff1614610f58578382826040517f64283d7b000000000000000000000000000000000000000000000000000000008152600401610f4f93929190613cc4565b60405180910390fd5b50505050565b600c5481565b610f7f838383604051806020016040528060008152506119ff565b505050565b610f8c612bfb565b6008600083815260200190815260200160002060050160009054906101000a900460ff16610fef576040517f08c379a0000000000000000000000000000000000000000000000000000000008152600401610fe690613d47565b60405180910390fd5b600860008381526020019081526020016000206040518060c00160405290816000820160009054906101000a900473ffffffffffffffffffffffffffffffffffffffff1673ffffffffffffffffffffffffffffffffffffffff1673ffffffffffffffffffffffffffffffffffffffff1681526020016001820160009054906101000a900473ffffffffffffffffffffffffffffffffffffffff1673ffffffffffffffffffffffffffffffffffffffff1673ffffffffffffffffffffffffffffffffffffffff168152602001600282015481526020016003820180546110d3906136ec565b80601f01602080910402602001604051908101604052809291908181526020018280546110ff906136ec565b801561114c5780601f106111215761010080835404028352916020019161114c565b820191906000526020600020905b81548152906001019060200180831161112f57829003601f168201915b50505050508152602001600482015481526020016005820160009054906101000a900460ff1615151515815250509050919050565b600061118c82611d9b565b9050919050565b60008073ffffffffffffffffffffffffffffffffffffffff168273ffffffffffffffffffffffffffffffffffffffff16036112065760006040517f89c62b640000000000000000000000000000000000000000000000000000000081526004016111fd9190612e84565b60405180910390fd5b600360008373ffffffffffffffffffffffffffffffffffffffff1673ffffffffffffffffffffffffffffffffffffffff168152602001908152602001600020549050919050565b6060600b60008373ffffffffffffffffffffffffffffffffffffffff1673ffffffffffffffffffffffffffffffffffffffff1681526020019081526020016000208054806020026020016040519081016040528092919081815260200182805480156112d857602002820191906000526020600020905b8154815260200190600101908083116112c4575b50505050509050919050565b6112ec6120b2565b6112f66000612139565b565b6000600660009054906101000a900473ffffffffffffffffffffffffffffffffffffffff16905090565b6009602052806000526040600020600091509050806000018054611345906136ec565b80601f0160208091040260200160405190810160405280929190818152602001828054611371906136ec565b80156113be5780601f10611393576101008083540402835291602001916113be565b820191906000526020600020905b8154815290600101906020018083116113a157829003601f168201915b5050505050908060010180546113d3906136ec565b80601f01602080910402602001604051908101604052809291908181526020018280546113ff906136ec565b801561144c5780601f106114215761010080835404028352916020019161144c565b820191906000526020600020905b81548152906001019060200180831161142f57829003601f168201915b505050505090806002018054611461906136ec565b80601f016020809104026020016040519081016040528092919081815260200182805461148d906136ec565b80156114da5780601f106114af576101008083540402835291602001916114da565b820191906000526020600020905b8154815290600101906020018083116114bd57829003601f168201915b5050505050908060030160009054906101000a900460ff16908060040154908060050154905086565b606060018054611512906136ec565b80601f016020809104026020016040519081016040528092919081815260200182805461153e906136ec565b801561158b5780601f106115605761010080835404028352916020019161158b565b820191906000526020600020905b81548152906001019060200180831161156e57829003601f168201915b5050505050905090565b6060600a60008373ffffffffffffffffffffffffffffffffffffffff1673ffffffffffffffffffffffffffffffffffffffff16815260200190815260200160002080548060200260200160405190810160405280929190818152602001828054801561162057602002820191906000526020600020905b81548152602001906001019080831161160c575b50505050509050919050565b6116346120b2565b6000600d5490506000600d8190555061164b6112f8565b73ffffffffffffffffffffffffffffffffffffffff166108fc829081150290604051600060405180830381858888f19350505050158015611690573d6000803e3d6000fd5b5050565b600b60205281600052604060002081815481106116b057600080fd5b90600052602060002001600091509150505481565b600960003373ffffffffffffffffffffffffffffffffffffffff1673ffffffffffffffffffffffffffffffffffffffff16815260200190815260200160002060030160009054906101000a900460ff1615611755576040517f08c379a000000000000000000000000000000000000000000000000000000000815260040161174c90613db3565b60405180910390fd5b6000835111611799576040517f08c379a000000000000000000000000000000000000000000000000000000000815260040161179090613e1f565b60405180910390fd5b6040518060c00160405280848152602001838152602001828152602001600115158152602001600081526020016000815250600960003373ffffffffffffffffffffffffffffffffffffffff1673ffffffffffffffffffffffffffffffffffffffff168152602001908152602001600020600082015181600001908161181f9190613bb4565b5060208201518160010190816118359190613bb4565b50604082015181600201908161184b9190613bb4565b5060608201518160030160006101000a81548160ff0219169083151502179055506080820151816004015560a082015181600501559050503373ffffffffffffffffffffffffffffffffffffffff167fc69c4b08ef3ac3499a548162bc0920f1f65d1559089f8c19d54ca0cb3b2651f684846040516118cb929190613e3f565b60405180910390a2505050565b6118ea6118e3611e60565b83836121ff565b5050565b60086020528060005260406000206000915090508060000160009054906101000a900473ffffffffffffffffffffffffffffffffffffffff16908060010160009054906101000a900473ffffffffffffffffffffffffffffffffffffffff1690806002015490806003018054611963906136ec565b80601f016020809104026020016040519081016040528092919081815260200182805461198f906136ec565b80156119dc5780601f106119b1576101008083540402835291602001916119dc565b820191906000526020600020905b8154815290600101906020018083116119bf57829003601f168201915b5050505050908060040154908060050160009054906101000a900460ff16905086565b611a0a848484610e5c565b611a1e611a15611e60565b8585858561236e565b50505050565b600d5481565b6060611a3582611d9b565b506000611a4061251f565b90506000815111611a605760405180602001604052806000815250611a8b565b80611a6a84612536565b604051602001611a7b929190613eb2565b6040516020818303038152906040525b915050919050565b600960003373ffffffffffffffffffffffffffffffffffffffff1673ffffffffffffffffffffffffffffffffffffffff16815260200190815260200160002060030160009054906101000a900460ff16611b22576040517f08c379a0000000000000000000000000000000000000000000000000000000008152600401611b1990613769565b60405180910390fd5b82600960003373ffffffffffffffffffffffffffffffffffffffff1673ffffffffffffffffffffffffffffffffffffffff1681526020019081526020016000206000019081611b719190613bb4565b5081600960003373ffffffffffffffffffffffffffffffffffffffff1673ffffffffffffffffffffffffffffffffffffffff1681526020019081526020016000206001019081611bc19190613bb4565b5080600960003373ffffffffffffffffffffffffffffffffffffffff1673ffffffffffffffffffffffffffffffffffffffff1681526020019081526020016000206002019081611c119190613bb4565b50505050565b6000600560008473ffffffffffffffffffffffffffffffffffffffff1673ffffffffffffffffffffffffffffffffffffffff16815260200190815260200160002060008373ffffffffffffffffffffffffffffffffffffffff1673ffffffffffffffffffffffffffffffffffffffff16815260200190815260200160002060009054906101000a900460ff16905092915050565b611cb36120b2565b600073ffffffffffffffffffffffffffffffffffffffff168173ffffffffffffffffffffffffffffffffffffffff1603611d255760006040517f1e4fbdf7000000000000000000000000000000000000000000000000000000008152600401611d1c9190612e84565b60405180910390fd5b611d2e81612139565b50565b60007f01ffc9a7000000000000000000000000000000000000000000000000000000007bffffffffffffffffffffffffffffffffffffffffffffffffffffffff1916827bffffffffffffffffffffffffffffffffffffffffffffffffffffffff1916149050919050565b600080611da783612604565b9050600073ffffffffffffffffffffffffffffffffffffffff168173ffffffffffffffffffffffffffffffffffffffff1603611e1a57826040517f7e273289000000000000000000000000000000000000000000000000000000008152600401611e1191906130da565b60405180910390fd5b80915050919050565b60006004600083815260200190815260200160002060009054906101000a900473ffffffffffffffffffffffffffffffffffffffff169050919050565b600033905090565b611e758383836001612641565b505050565b611e94828260405180602001604052806000815250612806565b5050565b600080611ea484612604565b9050600073ffffffffffffffffffffffffffffffffffffffff168373ffffffffffffffffffffffffffffffffffffffff1614611ee657611ee581848661282a565b5b600073ffffffffffffffffffffffffffffffffffffffff168173ffffffffffffffffffffffffffffffffffffffff1614611f7757611f28600085600080612641565b6001600360008373ffffffffffffffffffffffffffffffffffffffff1673ffffffffffffffffffffffffffffffffffffffff168152602001908152602001600020600082825403925050819055505b600073ffffffffffffffffffffffffffffffffffffffff168573ffffffffffffffffffffffffffffffffffffffff1614611ffa576001600360008773ffffffffffffffffffffffffffffffffffffffff1673ffffffffffffffffffffffffffffffffffffffff168152602001908152602001600020600082825401925050819055505b846002600086815260200190815260200160002060006101000a81548173ffffffffffffffffffffffffffffffffffffffff021916908373ffffffffffffffffffffffffffffffffffffffff160217905550838573ffffffffffffffffffffffffffffffffffffffff168273ffffffffffffffffffffffffffffffffffffffff167fddf252ad1be2c89b69c2b068fc378daa952ba7f163c4a11628f55a4df523b3ef60405160405180910390a4809150509392505050565b6120ba611e60565b73ffffffffffffffffffffffffffffffffffffffff166120d86112f8565b73ffffffffffffffffffffffffffffffffffffffff1614612137576120fb611e60565b6040517f118cdaa700000000000000000000000000000000000000000000000000000000815260040161212e9190612e84565b60405180910390fd5b565b6000600660009054906101000a900473ffffffffffffffffffffffffffffffffffffffff16905081600660006101000a81548173ffffffffffffffffffffffffffffffffffffffff021916908373ffffffffffffffffffffffffffffffffffffffff1602179055508173ffffffffffffffffffffffffffffffffffffffff168173ffffffffffffffffffffffffffffffffffffffff167f8be0079c531659141344cd1fd0a4f28419497f9722a3daafe3b4186f6b6457e060405160405180910390a35050565b600073ffffffffffffffffffffffffffffffffffffffff168273ffffffffffffffffffffffffffffffffffffffff160361227057816040517f5b08ba180000000000000000000000000000000000000000000000000000000081526004016122679190612e84565b60405180910390fd5b80600560008573ffffffffffffffffffffffffffffffffffffffff1673ffffffffffffffffffffffffffffffffffffffff16815260200190815260200160002060008473ffffffffffffffffffffffffffffffffffffffff1673ffffffffffffffffffffffffffffffffffffffff16815260200190815260200160002060006101000a81548160ff0219169083151502179055508173ffffffffffffffffffffffffffffffffffffffff168373ffffffffffffffffffffffffffffffffffffffff167f17307eab39ab6107e8899845ad3d59bd9653f200f220920489ca2b5937696c31836040516123619190612d13565b60405180910390a3505050565b60008373ffffffffffffffffffffffffffffffffffffffff163b1115612518578273ffffffffffffffffffffffffffffffffffffffff1663150b7a02868685856040518563ffffffff1660e01b81526004016123cd9493929190613f2b565b6020604051808303816000875af192505050801561240957506040513d601f19601f820116820180604052508101906124069190613f8c565b60015b61248d573d8060008114612439576040519150601f19603f3d011682016040523d82523d6000602084013e61243e565b606091505b50600081510361248557836040517f64a0ae9200000000000000000000000000000000000000000000000000000000815260040161247c9190612e84565b60405180910390fd5b805160208201fd5b63150b7a0260e01b7bffffffffffffffffffffffffffffffffffffffffffffffffffffffff1916817bffffffffffffffffffffffffffffffffffffffffffffffffffffffff19161461251657836040517f64a0ae9200000000000000000000000000000000000000000000000000000000815260040161250d9190612e84565b60405180910390fd5b505b5050505050565b606060405180602001604052806000815250905090565b606060006001612545846128ee565b01905060008167ffffffffffffffff81111561256457612563612f15565b5b6040519080825280601f01601f1916602001820160405280156125965781602001600182028036833780820191505090505b509050600082602083010190505b6001156125f9578080600190039150507f3031323334353637383961626364656600000000000000000000000000000000600a86061a8153600a85816125ed576125ec613940565b5b049450600085036125a4575b819350505050919050565b60006002600083815260200190815260200160002060009054906101000a900473ffffffffffffffffffffffffffffffffffffffff169050919050565b808061267a5750600073ffffffffffffffffffffffffffffffffffffffff168273ffffffffffffffffffffffffffffffffffffffff1614155b156127ae57600061268a84611d9b565b9050600073ffffffffffffffffffffffffffffffffffffffff168373ffffffffffffffffffffffffffffffffffffffff16141580156126f557508273ffffffffffffffffffffffffffffffffffffffff168173ffffffffffffffffffffffffffffffffffffffff1614155b801561270857506127068184611c17565b155b1561274a57826040517fa9fbf51f0000000000000000000000000000000000000000000000000000000081526004016127419190612e84565b60405180910390fd5b81156127ac57838573ffffffffffffffffffffffffffffffffffffffff168273ffffffffffffffffffffffffffffffffffffffff167f8c5be1e5ebec7d5bd14f71427d1e84f3dd0314c0f7b2291e5b200ac8c7c3b92560405160405180910390a45b505b836004600085815260200190815260200160002060006101000a81548173ffffffffffffffffffffffffffffffffffffffff021916908373ffffffffffffffffffffffffffffffffffffffff16021790555050505050565b6128108383612a41565b61282561281b611e60565b600085858561236e565b505050565b612835838383612b3a565b6128e957600073ffffffffffffffffffffffffffffffffffffffff168373ffffffffffffffffffffffffffffffffffffffff16036128aa57806040517f7e2732890000000000000000000000000000000000000000000000000000000081526004016128a191906130da565b60405180910390fd5b81816040517f177e802f0000000000000000000000000000000000000000000000000000000081526004016128e0929190613fb9565b60405180910390fd5b505050565b600080600090507a184f03e93ff9f4daa797ed6e38ed64bf6a1f010000000000000000831061294c577a184f03e93ff9f4daa797ed6e38ed64bf6a1f010000000000000000838161294257612941613940565b5b0492506040810190505b6d04ee2d6d415b85acef81000000008310612989576d04ee2d6d415b85acef8100000000838161297f5761297e613940565b5b0492506020810190505b662386f26fc1000083106129b857662386f26fc1000083816129ae576129ad613940565b5b0492506010810190505b6305f5e10083106129e1576305f5e10083816129d7576129d6613940565b5b0492506008810190505b6127108310612a065761271083816129fc576129fb613940565b5b0492506004810190505b60648310612a295760648381612a1f57612a1e613940565b5b0492506002810190505b600a8310612a38576001810190505b80915050919050565b600073ffffffffffffffffffffffffffffffffffffffff168273ffffffffffffffffffffffffffffffffffffffff1603612ab35760006040517f64a0ae92000000000000000000000000000000000000000000000000000000008152600401612aaa9190612e84565b60405180910390fd5b6000612ac183836000611e98565b9050600073ffffffffffffffffffffffffffffffffffffffff168173ffffffffffffffffffffffffffffffffffffffff1614612b355760006040517f73c6ac6e000000000000000000000000000000000000000000000000000000008152600401612b2c9190612e84565b60405180910390fd5b505050565b60008073ffffffffffffffffffffffffffffffffffffffff168373ffffffffffffffffffffffffffffffffffffffff1614158015612bf257508273ffffffffffffffffffffffffffffffffffffffff168473ffffffffffffffffffffffffffffffffffffffff161480612bb35750612bb28484611c17565b5b80612bf157508273ffffffffffffffffffffffffffffffffffffffff16612bd983611e23565b73ffffffffffffffffffffffffffffffffffffffff16145b5b90509392505050565b6040518060c00160405280600073ffffffffffffffffffffffffffffffffffffffff168152602001600073ffffffffffffffffffffffffffffffffffffffff1681526020016000815260200160608152602001600081526020016000151581525090565b6000604051905090565b600080fd5b600080fd5b60007fffffffff0000000000000000000000000000000000000000000000000000000082169050919050565b612ca881612c73565b8114612cb357600080fd5b50565b600081359050612cc581612c9f565b92915050565b600060208284031215612ce157612ce0612c69565b5b6000612cef84828501612cb6565b91505092915050565b60008115159050919050565b612d0d81612cf8565b82525050565b6000602082019050612d286000830184612d04565b92915050565b600081519050919050565b600082825260208201905092915050565b60005b83811015612d68578082015181840152602081019050612d4d565b60008484015250505050565b6000601f19601f8301169050919050565b6000612d9082612d2e565b612d9a8185612d39565b9350612daa818560208601612d4a565b612db381612d74565b840191505092915050565b60006020820190508181036000830152612dd88184612d85565b905092915050565b6000819050919050565b612df381612de0565b8114612dfe57600080fd5b50565b600081359050612e1081612dea565b92915050565b600060208284031215612e2c57612e2b612c69565b5b6000612e3a84828501612e01565b91505092915050565b600073ffffffffffffffffffffffffffffffffffffffff82169050919050565b6000612e6e82612e43565b9050919050565b612e7e81612e63565b82525050565b6000602082019050612e996000830184612e75565b92915050565b612ea881612e63565b8114612eb357600080fd5b50565b600081359050612ec581612e9f565b92915050565b60008060408385031215612ee257612ee1612c69565b5b6000612ef085828601612eb6565b9250506020612f0185828601612e01565b9150509250929050565b600080fd5b600080fd5b7f4e487b7100000000000000000000000000000000000000000000000000000000600052604160045260246000fd5b612f4d82612d74565b810181811067ffffffffffffffff82111715612f6c57612f6b612f15565b5b80604052505050565b6000612f7f612c5f565b9050612f8b8282612f44565b919050565b600067ffffffffffffffff821115612fab57612faa612f15565b5b612fb482612d74565b9050602081019050919050565b82818337600083830152505050565b6000612fe3612fde84612f90565b612f75565b905082815260208101848484011115612fff57612ffe612f10565b5b61300a848285612fc1565b509392505050565b600082601f83011261302757613026612f0b565b5b8135613037848260208601612fd0565b91505092915050565b60008060006060848603121561305957613058612c69565b5b600061306786828701612eb6565b935050602084013567ffffffffffffffff81111561308857613087612c6e565b5b61309486828701613012565b925050604084013567ffffffffffffffff8111156130b5576130b4612c6e565b5b6130c186828701613012565b9150509250925092565b6130d481612de0565b82525050565b60006020820190506130ef60008301846130cb565b92915050565b60008060006060848603121561310e5761310d612c69565b5b600061311c86828701612eb6565b935050602061312d86828701612eb6565b925050604061313e86828701612e01565b9150509250925092565b61315181612e63565b82525050565b61316081612de0565b82525050565b600082825260208201905092915050565b600061318282612d2e565b61318c8185613166565b935061319c818560208601612d4a565b6131a581612d74565b840191505092915050565b6131b981612cf8565b82525050565b600060c0830160008301516131d76000860182613148565b5060208301516131ea6020860182613148565b5060408301516131fd6040860182613157565b50606083015184820360608601526132158282613177565b915050608083015161322a6080860182613157565b5060a083015161323d60a08601826131b0565b508091505092915050565b6000602082019050818103600083015261326281846131bf565b905092915050565b6000602082840312156132805761327f612c69565b5b600061328e84828501612eb6565b91505092915050565b600081519050919050565b600082825260208201905092915050565b6000819050602082019050919050565b60006132cf8383613157565b60208301905092915050565b6000602082019050919050565b60006132f382613297565b6132fd81856132a2565b9350613308836132b3565b8060005b8381101561333957815161332088826132c3565b975061332b836132db565b92505060018101905061330c565b5085935050505092915050565b6000602082019050818103600083015261336081846132e8565b905092915050565b600060c08201905081810360008301526133828189612d85565b905081810360208301526133968188612d85565b905081810360408301526133aa8187612d85565b90506133b96060830186612d04565b6133c660808301856130cb565b6133d360a08301846130cb565b979650505050505050565b6000806000606084860312156133f7576133f6612c69565b5b600084013567ffffffffffffffff81111561341557613414612c6e565b5b61342186828701613012565b935050602084013567ffffffffffffffff81111561344257613441612c6e565b5b61344e86828701613012565b925050604084013567ffffffffffffffff81111561346f5761346e612c6e565b5b61347b86828701613012565b9150509250925092565b61348e81612cf8565b811461349957600080fd5b50565b6000813590506134ab81613485565b92915050565b600080604083850312156134c8576134c7612c69565b5b60006134d685828601612eb6565b92505060206134e78582860161349c565b9150509250929050565b600060c0820190506135066000830189612e75565b6135136020830188612e75565b61352060408301876130cb565b81810360608301526135328186612d85565b905061354160808301856130cb565b61354e60a0830184612d04565b979650505050505050565b600067ffffffffffffffff82111561357457613573612f15565b5b61357d82612d74565b9050602081019050919050565b600061359d61359884613559565b612f75565b9050828152602081018484840111156135b9576135b8612f10565b5b6135c4848285612fc1565b509392505050565b600082601f8301126135e1576135e0612f0b565b5b81356135f184826020860161358a565b91505092915050565b6000806000806080858703121561361457613613612c69565b5b600061362287828801612eb6565b945050602061363387828801612eb6565b935050604061364487828801612e01565b925050606085013567ffffffffffffffff81111561366557613664612c6e565b5b613671878288016135cc565b91505092959194509250565b6000806040838503121561369457613693612c69565b5b60006136a285828601612eb6565b92505060206136b385828601612eb6565b9150509250929050565b7f4e487b7100000000000000000000000000000000000000000000000000000000600052602260045260246000fd5b6000600282049050600182168061370457607f821691505b602082108103613717576137166136bd565b5b50919050565b7f43726561746f72206e6f74207265676973746572656400000000000000000000600082015250565b6000613753601683612d39565b915061375e8261371d565b602082019050919050565b6000602082019050818103600083015261378281613746565b9050919050565b7f54697020616d6f756e74206d7573742062652067726561746572207468616e2060008201527f3000000000000000000000000000000000000000000000000000000000000000602082015250565b60006137e5602183612d39565b91506137f082613789565b604082019050919050565b60006020820190508181036000830152613814816137d8565b9050919050565b7f43616e6e6f742074697020796f757273656c6600000000000000000000000000600082015250565b6000613851601383612d39565b915061385c8261381b565b602082019050919050565b6000602082019050818103600083015261388081613844565b9050919050565b7f4e487b7100000000000000000000000000000000000000000000000000000000600052601160045260246000fd5b60006138c182612de0565b91507fffffffffffffffffffffffffffffffffffffffffffffffffffffffffffffffff82036138f3576138f2613887565b5b600182019050919050565b600061390982612de0565b915061391483612de0565b925082820261392281612de0565b9150828204841483151761393957613938613887565b5b5092915050565b7f4e487b7100000000000000000000000000000000000000000000000000000000600052601260045260246000fd5b600061397a82612de0565b915061398583612de0565b92508261399557613994613940565b5b828204905092915050565b60006139ab82612de0565b91506139b683612de0565b92508282039050818111156139ce576139cd613887565b5b92915050565b60006139df82612de0565b91506139ea83612de0565b9250828201905080821115613a0257613a01613887565b5b92915050565b60008190508160005260206000209050919050565b60006020601f8301049050919050565b600082821b905092915050565b600060088302613a6a7fffffffffffffffffffffffffffffffffffffffffffffffffffffffffffffffff82613a2d565b613a748683613a2d565b95508019841693508086168417925050509392505050565b6000819050919050565b6000613ab1613aac613aa784612de0565b613a8c565b612de0565b9050919050565b6000819050919050565b613acb83613a96565b613adf613ad782613ab8565b848454613a3a565b825550505050565b600090565b613af4613ae7565b613aff818484613ac2565b505050565b5b81811015613b2357613b18600082613aec565b600181019050613b05565b5050565b601f821115613b6857613b3981613a08565b613b4284613a1d565b81016020851015613b51578190505b613b65613b5d85613a1d565b830182613b04565b50505b505050565b600082821c905092915050565b6000613b8b60001984600802613b6d565b1980831691505092915050565b6000613ba48383613b7a565b9150826002028217905092915050565b613bbd82612d2e565b67ffffffffffffffff811115613bd657613bd5612f15565b5b613be082546136ec565b613beb828285613b27565b600060209050601f831160018114613c1e5760008415613c0c578287015190505b613c168582613b98565b865550613c7e565b601f198416613c2c86613a08565b60005b82811015613c5457848901518255600182019150602085019450602081019050613c2f565b86831015613c715784890151613c6d601f891682613b7a565b8355505b6001600288020188555050505b505050505050565b6000606082019050613c9b60008301866130cb565b613ca860208301856130cb565b8181036040830152613cba8184612d85565b9050949350505050565b6000606082019050613cd96000830186612e75565b613ce660208301856130cb565b613cf36040830184612e75565b949350505050565b7f54697020646f6573206e6f742065786973740000000000000000000000000000600082015250565b6000613d31601283612d39565b9150613d3c82613cfb565b602082019050919050565b60006020820190508181036000830152613d6081613d24565b9050919050565b7f43726561746f7220616c72656164792072656769737465726564000000000000600082015250565b6000613d9d601a83612d39565b9150613da882613d67565b602082019050919050565b60006020820190508181036000830152613dcc81613d90565b9050919050565b7f4e616d652063616e6e6f7420626520656d707479000000000000000000000000600082015250565b6000613e09601483612d39565b9150613e1482613dd3565b602082019050919050565b60006020820190508181036000830152613e3881613dfc565b9050919050565b60006040820190508181036000830152613e598185612d85565b90508181036020830152613e6d8184612d85565b90509392505050565b600081905092915050565b6000613e8c82612d2e565b613e968185613e76565b9350613ea6818560208601612d4a565b80840191505092915050565b6000613ebe8285613e81565b9150613eca8284613e81565b91508190509392505050565b600081519050919050565b600082825260208201905092915050565b6000613efd82613ed6565b613f078185613ee1565b9350613f17818560208601612d4a565b613f2081612d74565b840191505092915050565b6000608082019050613f406000830187612e75565b613f4d6020830186612e75565b613f5a60408301856130cb565b8181036060830152613f6c8184613ef2565b905095945050505050565b600081519050613f8681612c9f565b92915050565b600060208284031215613fa257613fa1612c69565b5b6000613fb084828501613f77565b91505092915050565b6000604082019050613fce6000830185612e75565b613fdb60208301846130cb565b939250505056fea26469706673582212204a6cc5c85e731642f61093d8260597067b3d3850d8d035968502db97c8099b6464736f6c63430008140033",
  "linkReferences": {},
  "deployedLinkReferences": {}
}